{
  "_format": "hh-sol-artifact-1",
  "contractName": "ContractsDatabase",
  "sourceName": "contracts/ContractsDatabase.sol",
  "abi": [
    {
      "anonymous": false,
      "inputs": [
        {
          "indexed": true,
          "internalType": "address",
          "name": "previousOwner",
          "type": "address"
        },
        {
          "indexed": true,
          "internalType": "address",
          "name": "newOwner",
          "type": "address"
        }
      ],
      "name": "OwnershipTransferred",
      "type": "event"
    },
    {
      "inputs": [
        {
          "internalType": "uint256",
          "name": "",
          "type": "uint256"
        }
      ],
      "name": "contracts",
      "outputs": [
        {
          "internalType": "string",
          "name": "",
          "type": "string"
        }
      ],
      "stateMutability": "view",
      "type": "function"
    },
    {
      "inputs": [],
      "name": "currentContract",
      "outputs": [
        {
          "internalType": "string",
          "name": "",
          "type": "string"
        }
      ],
      "stateMutability": "view",
      "type": "function"
    },
    {
      "inputs": [],
      "name": "owner",
      "outputs": [
        {
          "internalType": "address",
          "name": "",
          "type": "address"
        }
      ],
      "stateMutability": "view",
      "type": "function"
    },
    {
      "inputs": [],
      "name": "renounceOwnership",
      "outputs": [],
      "stateMutability": "nonpayable",
      "type": "function"
    },
    {
      "inputs": [],
      "name": "setContractsPop",
      "outputs": [],
      "stateMutability": "nonpayable",
      "type": "function"
    },
    {
      "inputs": [
        {
          "internalType": "string[]",
          "name": "arrContracts",
          "type": "string[]"
        }
      ],
      "name": "setContractsPush",
      "outputs": [],
      "stateMutability": "nonpayable",
      "type": "function"
    },
    {
      "inputs": [
        {
          "internalType": "address",
          "name": "newOwner",
          "type": "address"
        }
      ],
      "name": "transferOwnership",
      "outputs": [],
      "stateMutability": "nonpayable",
      "type": "function"
    }
  ],
  "bytecode": "0x608060405234801561001057600080fd5b5061002d61002261003260201b60201c565b61003a60201b60201c565b6100fe565b600033905090565b60008060009054906101000a900473ffffffffffffffffffffffffffffffffffffffff169050816000806101000a81548173ffffffffffffffffffffffffffffffffffffffff021916908373ffffffffffffffffffffffffffffffffffffffff1602179055508173ffffffffffffffffffffffffffffffffffffffff168173ffffffffffffffffffffffffffffffffffffffff167f8be0079c531659141344cd1fd0a4f28419497f9722a3daafe3b4186f6b6457e060405160405180910390a35050565b610d108061010d6000396000f3fe608060405234801561001057600080fd5b506004361061007d5760003560e01c80638a3b6dc51161005b5780638a3b6dc5146100da5780638ca9282b146100f65780638da5cb5b14610100578063f2fde38b1461011e5761007d565b8063474da79a14610082578063715018a6146100b2578063721d7d8e146100bc575b600080fd5b61009c60048036038101906100979190610900565b61013a565b6040516100a991906109d2565b60405180910390f35b6100ba6101e6565b005b6100c461026e565b6040516100d191906109d2565b60405180910390f35b6100f460048036038101906100ef91906108bb565b610351565b005b6100fe61047a565b005b61010861054e565b60405161011591906109b7565b60405180910390f35b61013860048036038101906101339190610892565b610577565b005b6001818154811061014a57600080fd5b90600052602060002001600091509050805461016590610b4a565b80601f016020809104026020016040519081016040528092919081815260200182805461019190610b4a565b80156101de5780601f106101b3576101008083540402835291602001916101de565b820191906000526020600020905b8154815290600101906020018083116101c157829003601f168201915b505050505081565b6101ee61066f565b73ffffffffffffffffffffffffffffffffffffffff1661020c61054e565b73ffffffffffffffffffffffffffffffffffffffff1614610262576040517f08c379a000000000000000000000000000000000000000000000000000000000815260040161025990610a14565b60405180910390fd5b61026c6000610677565b565b606060018080805490506102829190610aa7565b815481106102b9577f4e487b7100000000000000000000000000000000000000000000000000000000600052603260045260246000fd5b9060005260206000200180546102ce90610b4a565b80601f01602080910402602001604051908101604052809291908181526020018280546102fa90610b4a565b80156103475780601f1061031c57610100808354040283529160200191610347565b820191906000526020600020905b81548152906001019060200180831161032a57829003601f168201915b5050505050905090565b61035961066f565b73ffffffffffffffffffffffffffffffffffffffff1661037761054e565b73ffffffffffffffffffffffffffffffffffffffff16146103cd576040517f08c379a00000000000000000000000000000000000000000000000000000000081526004016103c490610a14565b60405180910390fd5b60005b82829050811015610475576001838383818110610416577f4e487b7100000000000000000000000000000000000000000000000000000000600052603260045260246000fd5b90506020028101906104289190610a34565b9091806001815401808255809150506001900390600052602060002001600090919290919290919290919250919061046192919061073b565b50808061046d90610b7c565b9150506103d0565b505050565b61048261066f565b73ffffffffffffffffffffffffffffffffffffffff166104a061054e565b73ffffffffffffffffffffffffffffffffffffffff16146104f6576040517f08c379a00000000000000000000000000000000000000000000000000000000081526004016104ed90610a14565b60405180910390fd5b600180548061052e577f4e487b7100000000000000000000000000000000000000000000000000000000600052603160045260246000fd5b60019003818190600052602060002001600061054a91906107c1565b9055565b60008060009054906101000a900473ffffffffffffffffffffffffffffffffffffffff16905090565b61057f61066f565b73ffffffffffffffffffffffffffffffffffffffff1661059d61054e565b73ffffffffffffffffffffffffffffffffffffffff16146105f3576040517f08c379a00000000000000000000000000000000000000000000000000000000081526004016105ea90610a14565b60405180910390fd5b600073ffffffffffffffffffffffffffffffffffffffff168173ffffffffffffffffffffffffffffffffffffffff161415610663576040517f08c379a000000000000000000000000000000000000000000000000000000000815260040161065a906109f4565b60405180910390fd5b61066c81610677565b50565b600033905090565b60008060009054906101000a900473ffffffffffffffffffffffffffffffffffffffff169050816000806101000a81548173ffffffffffffffffffffffffffffffffffffffff021916908373ffffffffffffffffffffffffffffffffffffffff1602179055508173ffffffffffffffffffffffffffffffffffffffff168173ffffffffffffffffffffffffffffffffffffffff167f8be0079c531659141344cd1fd0a4f28419497f9722a3daafe3b4186f6b6457e060405160405180910390a35050565b82805461074790610b4a565b90600052602060002090601f01602090048101928261076957600085556107b0565b82601f1061078257803560ff19168380011785556107b0565b828001600101855582156107b0579182015b828111156107af578235825591602001919060010190610794565b5b5090506107bd9190610801565b5090565b5080546107cd90610b4a565b6000825580601f106107df57506107fe565b601f0160209004906000526020600020908101906107fd9190610801565b5b50565b5b8082111561081a576000816000905550600101610802565b5090565b60008135905061082d81610cac565b92915050565b60008083601f84011261084557600080fd5b8235905067ffffffffffffffff81111561085e57600080fd5b60208301915083602082028301111561087657600080fd5b9250929050565b60008135905061088c81610cc3565b92915050565b6000602082840312156108a457600080fd5b60006108b28482850161081e565b91505092915050565b600080602083850312156108ce57600080fd5b600083013567ffffffffffffffff8111156108e857600080fd5b6108f485828601610833565b92509250509250929050565b60006020828403121561091257600080fd5b60006109208482850161087d565b91505092915050565b61093281610adb565b82525050565b600061094382610a8b565b61094d8185610a96565b935061095d818560208601610b17565b61096681610c23565b840191505092915050565b600061097e602683610a96565b915061098982610c34565b604082019050919050565b60006109a1602083610a96565b91506109ac82610c83565b602082019050919050565b60006020820190506109cc6000830184610929565b92915050565b600060208201905081810360008301526109ec8184610938565b905092915050565b60006020820190508181036000830152610a0d81610971565b9050919050565b60006020820190508181036000830152610a2d81610994565b9050919050565b60008083356001602003843603038112610a4d57600080fd5b80840192508235915067ffffffffffffffff821115610a6b57600080fd5b602083019250600182023603831315610a8357600080fd5b509250929050565b600081519050919050565b600082825260208201905092915050565b6000610ab282610b0d565b9150610abd83610b0d565b925082821015610ad057610acf610bc5565b5b828203905092915050565b6000610ae682610aed565b9050919050565b600073ffffffffffffffffffffffffffffffffffffffff82169050919050565b6000819050919050565b60005b83811015610b35578082015181840152602081019050610b1a565b83811115610b44576000848401525b50505050565b60006002820490506001821680610b6257607f821691505b60208210811415610b7657610b75610bf4565b5b50919050565b6000610b8782610b0d565b91507fffffffffffffffffffffffffffffffffffffffffffffffffffffffffffffffff821415610bba57610bb9610bc5565b5b600182019050919050565b7f4e487b7100000000000000000000000000000000000000000000000000000000600052601160045260246000fd5b7f4e487b7100000000000000000000000000000000000000000000000000000000600052602260045260246000fd5b6000601f19601f8301169050919050565b7f4f776e61626c653a206e6577206f776e657220697320746865207a65726f206160008201527f6464726573730000000000000000000000000000000000000000000000000000602082015250565b7f4f776e61626c653a2063616c6c6572206973206e6f7420746865206f776e6572600082015250565b610cb581610adb565b8114610cc057600080fd5b50565b610ccc81610b0d565b8114610cd757600080fd5b5056fea264697066735822122039bd383be887ae10db25a4f260ea146b552a5775cb6d882b17934ccd7b4ca1e164736f6c63430008040033",
  "linkReferences": {},
  "deployedLinkReferences": {}
}