{
  "_format": "hh-sol-artifact-1",
  "contractName": "PartsCollection",
  "sourceName": "contracts/PartsCollection.sol",
  "abi": [
    {
      "inputs": [],
      "stateMutability": "nonpayable",
      "type": "constructor"
    },
    {
      "anonymous": false,
      "inputs": [
        {
          "indexed": true,
          "internalType": "address",
          "name": "owner",
          "type": "address"
        },
        {
          "indexed": true,
          "internalType": "address",
          "name": "approved",
          "type": "address"
        },
        {
          "indexed": true,
          "internalType": "uint256",
          "name": "tokenId",
          "type": "uint256"
        }
      ],
      "name": "Approval",
      "type": "event"
    },
    {
      "anonymous": false,
      "inputs": [
        {
          "indexed": true,
          "internalType": "address",
          "name": "owner",
          "type": "address"
        },
        {
          "indexed": true,
          "internalType": "address",
          "name": "operator",
          "type": "address"
        },
        {
          "indexed": false,
          "internalType": "bool",
          "name": "approved",
          "type": "bool"
        }
      ],
      "name": "ApprovalForAll",
      "type": "event"
    },
    {
      "anonymous": false,
      "inputs": [
        {
          "indexed": true,
          "internalType": "address",
          "name": "previousOwner",
          "type": "address"
        },
        {
          "indexed": true,
          "internalType": "address",
          "name": "newOwner",
          "type": "address"
        }
      ],
      "name": "OwnershipTransferred",
      "type": "event"
    },
    {
      "anonymous": false,
      "inputs": [
        {
          "indexed": true,
          "internalType": "address",
          "name": "from",
          "type": "address"
        },
        {
          "indexed": true,
          "internalType": "address",
          "name": "to",
          "type": "address"
        },
        {
          "indexed": true,
          "internalType": "uint256",
          "name": "tokenId",
          "type": "uint256"
        }
      ],
      "name": "Transfer",
      "type": "event"
    },
    {
      "inputs": [],
      "name": "MAX_PUBLIC_MINT",
      "outputs": [
        {
          "internalType": "uint256",
          "name": "",
          "type": "uint256"
        }
      ],
      "stateMutability": "view",
      "type": "function"
    },
    {
      "inputs": [],
      "name": "MAX_SUPPLY",
      "outputs": [
        {
          "internalType": "uint256",
          "name": "",
          "type": "uint256"
        }
      ],
      "stateMutability": "view",
      "type": "function"
    },
    {
      "inputs": [],
      "name": "PRICE_PER_TOKEN",
      "outputs": [
        {
          "internalType": "uint256",
          "name": "",
          "type": "uint256"
        }
      ],
      "stateMutability": "view",
      "type": "function"
    },
    {
      "inputs": [
        {
          "internalType": "address",
          "name": "",
          "type": "address"
        }
      ],
      "name": "_whiteList",
      "outputs": [
        {
          "internalType": "uint8",
          "name": "",
          "type": "uint8"
        }
      ],
      "stateMutability": "view",
      "type": "function"
    },
    {
      "inputs": [
        {
          "internalType": "address",
          "name": "to",
          "type": "address"
        },
        {
          "internalType": "uint256",
          "name": "tokenId",
          "type": "uint256"
        }
      ],
      "name": "approve",
      "outputs": [],
      "stateMutability": "nonpayable",
      "type": "function"
    },
    {
      "inputs": [
        {
          "internalType": "address",
          "name": "owner",
          "type": "address"
        }
      ],
      "name": "balanceOf",
      "outputs": [
        {
          "internalType": "uint256",
          "name": "",
          "type": "uint256"
        }
      ],
      "stateMutability": "view",
      "type": "function"
    },
    {
      "inputs": [],
      "name": "claimFullArt",
      "outputs": [],
      "stateMutability": "nonpayable",
      "type": "function"
    },
    {
      "inputs": [
        {
          "internalType": "uint256",
          "name": "tokenId",
          "type": "uint256"
        }
      ],
      "name": "getApproved",
      "outputs": [
        {
          "internalType": "address",
          "name": "",
          "type": "address"
        }
      ],
      "stateMutability": "view",
      "type": "function"
    },
    {
      "inputs": [
        {
          "internalType": "address",
          "name": "owner",
          "type": "address"
        },
        {
          "internalType": "address",
          "name": "operator",
          "type": "address"
        }
      ],
      "name": "isApprovedForAll",
      "outputs": [
        {
          "internalType": "bool",
          "name": "",
          "type": "bool"
        }
      ],
      "stateMutability": "view",
      "type": "function"
    },
    {
      "inputs": [
        {
          "internalType": "address",
          "name": "",
          "type": "address"
        }
      ],
      "name": "m_add",
      "outputs": [
        {
          "internalType": "uint8",
          "name": "",
          "type": "uint8"
        }
      ],
      "stateMutability": "view",
      "type": "function"
    },
    {
      "inputs": [
        {
          "internalType": "uint256",
          "name": "numberOfTokens",
          "type": "uint256"
        }
      ],
      "name": "mint",
      "outputs": [],
      "stateMutability": "payable",
      "type": "function"
    },
    {
      "inputs": [
        {
          "internalType": "uint8",
          "name": "numberOfTokens",
          "type": "uint8"
        }
      ],
      "name": "mintWhitelist",
      "outputs": [],
      "stateMutability": "payable",
      "type": "function"
    },
    {
      "inputs": [],
      "name": "name",
      "outputs": [
        {
          "internalType": "string",
          "name": "",
          "type": "string"
        }
      ],
      "stateMutability": "view",
      "type": "function"
    },
    {
      "inputs": [],
      "name": "owner",
      "outputs": [
        {
          "internalType": "address",
          "name": "",
          "type": "address"
        }
      ],
      "stateMutability": "view",
      "type": "function"
    },
    {
      "inputs": [
        {
          "internalType": "uint256",
          "name": "tokenId",
          "type": "uint256"
        }
      ],
      "name": "ownerOf",
      "outputs": [
        {
          "internalType": "address",
          "name": "",
          "type": "address"
        }
      ],
      "stateMutability": "view",
      "type": "function"
    },
    {
      "inputs": [],
      "name": "renounceOwnership",
      "outputs": [],
      "stateMutability": "nonpayable",
      "type": "function"
    },
    {
      "inputs": [],
      "name": "revealCollection",
      "outputs": [],
      "stateMutability": "nonpayable",
      "type": "function"
    },
    {
      "inputs": [
        {
          "internalType": "address",
          "name": "from",
          "type": "address"
        },
        {
          "internalType": "address",
          "name": "to",
          "type": "address"
        },
        {
          "internalType": "uint256",
          "name": "tokenId",
          "type": "uint256"
        }
      ],
      "name": "safeTransferFrom",
      "outputs": [],
      "stateMutability": "nonpayable",
      "type": "function"
    },
    {
      "inputs": [
        {
          "internalType": "address",
          "name": "from",
          "type": "address"
        },
        {
          "internalType": "address",
          "name": "to",
          "type": "address"
        },
        {
          "internalType": "uint256",
          "name": "tokenId",
          "type": "uint256"
        },
        {
          "internalType": "bytes",
          "name": "_data",
          "type": "bytes"
        }
      ],
      "name": "safeTransferFrom",
      "outputs": [],
      "stateMutability": "nonpayable",
      "type": "function"
    },
    {
      "inputs": [],
      "name": "sendFullNFT",
      "outputs": [],
      "stateMutability": "nonpayable",
      "type": "function"
    },
    {
      "inputs": [
        {
          "internalType": "address",
          "name": "operator",
          "type": "address"
        },
        {
          "internalType": "bool",
          "name": "approved",
          "type": "bool"
        }
      ],
      "name": "setApprovalForAll",
      "outputs": [],
      "stateMutability": "nonpayable",
      "type": "function"
    },
    {
      "inputs": [
        {
          "internalType": "string",
          "name": "baseURI_",
          "type": "string"
        }
      ],
      "name": "setBaseUriExtended",
      "outputs": [],
      "stateMutability": "nonpayable",
      "type": "function"
    },
    {
      "inputs": [
        {
          "internalType": "string",
          "name": "baseURInotRevealed_",
          "type": "string"
        }
      ],
      "name": "setBaseUriNotRevealed",
      "outputs": [],
      "stateMutability": "nonpayable",
      "type": "function"
    },
    {
      "inputs": [],
      "name": "setSaleIsActive",
      "outputs": [],
      "stateMutability": "nonpayable",
      "type": "function"
    },
    {
      "inputs": [
        {
          "internalType": "address[]",
          "name": "addresses",
          "type": "address[]"
        },
        {
          "internalType": "uint8",
          "name": "numAllowedMint",
          "type": "uint8"
        }
      ],
      "name": "setWhitelist",
      "outputs": [],
      "stateMutability": "nonpayable",
      "type": "function"
    },
    {
      "inputs": [],
      "name": "setWhitelistActive",
      "outputs": [],
      "stateMutability": "nonpayable",
      "type": "function"
    },
    {
      "inputs": [
        {
          "internalType": "bytes4",
          "name": "interfaceId",
          "type": "bytes4"
        }
      ],
      "name": "supportsInterface",
      "outputs": [
        {
          "internalType": "bool",
          "name": "",
          "type": "bool"
        }
      ],
      "stateMutability": "view",
      "type": "function"
    },
    {
      "inputs": [],
      "name": "symbol",
      "outputs": [
        {
          "internalType": "string",
          "name": "",
          "type": "string"
        }
      ],
      "stateMutability": "view",
      "type": "function"
    },
    {
      "inputs": [],
      "name": "tokenId",
      "outputs": [
        {
          "internalType": "uint256",
          "name": "",
          "type": "uint256"
        }
      ],
      "stateMutability": "view",
      "type": "function"
    },
    {
      "inputs": [
        {
          "internalType": "uint256",
          "name": "_tokenId",
          "type": "uint256"
        }
      ],
      "name": "tokenURI",
      "outputs": [
        {
          "internalType": "string",
          "name": "",
          "type": "string"
        }
      ],
      "stateMutability": "view",
      "type": "function"
    },
    {
      "inputs": [
        {
          "internalType": "address",
          "name": "from",
          "type": "address"
        },
        {
          "internalType": "address",
          "name": "to",
          "type": "address"
        },
        {
          "internalType": "uint256",
          "name": "tokenId",
          "type": "uint256"
        }
      ],
      "name": "transferFrom",
      "outputs": [],
      "stateMutability": "nonpayable",
      "type": "function"
    },
    {
      "inputs": [
        {
          "internalType": "address",
          "name": "newOwner",
          "type": "address"
        }
      ],
      "name": "transferOwnership",
      "outputs": [],
      "stateMutability": "nonpayable",
      "type": "function"
    },
    {
      "inputs": [],
      "name": "withdraw",
      "outputs": [],
      "stateMutability": "nonpayable",
      "type": "function"
    }
  ],
  "bytecode": "0x60806040526001600a60006101000a81548160ff0219169083151502179055506000600a60016101000a81548160ff0219169083151502179055506001600a60026101000a81548160ff0219169083151502179055503480156200006257600080fd5b506040518060400160405280600681526020017f50757a7a6c6500000000000000000000000000000000000000000000000000008152506040518060400160405280600381526020017f505a4c00000000000000000000000000000000000000000000000000000000008152508160009080519060200190620000e7929190620001ff565b50806001908051906020019062000100929190620001ff565b50505062000123620001176200013160201b60201c565b6200013960201b60201c565b600160098190555062000314565b600033905090565b6000600660009054906101000a900473ffffffffffffffffffffffffffffffffffffffff16905081600660006101000a81548173ffffffffffffffffffffffffffffffffffffffff021916908373ffffffffffffffffffffffffffffffffffffffff1602179055508173ffffffffffffffffffffffffffffffffffffffff168173ffffffffffffffffffffffffffffffffffffffff167f8be0079c531659141344cd1fd0a4f28419497f9722a3daafe3b4186f6b6457e060405160405180910390a35050565b8280546200020d90620002af565b90600052602060002090601f0160209004810192826200023157600085556200027d565b82601f106200024c57805160ff19168380011785556200027d565b828001600101855582156200027d579182015b828111156200027c5782518255916020019190600101906200025f565b5b5090506200028c919062000290565b5090565b5b80821115620002ab57600081600090555060010162000291565b5090565b60006002820490506001821680620002c857607f821691505b60208210811415620002df57620002de620002e5565b5b50919050565b7f4e487b7100000000000000000000000000000000000000000000000000000000600052602260045260246000fd5b61432f80620003246000396000f3fe6080604052600436106101ee5760003560e01c80636352211e1161010d57806395d89b41116100a0578063b88d4fde1161006f578063b88d4fde1461066f578063c87b56dd14610698578063d2cfd010146106d5578063e985e9c5146106ec578063f2fde38b14610729576101ee565b806395d89b41146105d657806397495d7114610601578063a0712d681461062a578063a22cb46514610646576101ee565b8063715018a6116100dc578063715018a614610540578063833b94991461055757806386098eb7146105825780638da5cb5b146105ab576101ee565b80636352211e1461048457806365f13097146104c15780636b22f36c146104ec57806370a0823114610503576101ee565b806317d70f7c1161018557806332cb6b0c1161015457806332cb6b0c146104025780633ccfd60b1461042d57806340d0b4a91461044457806342842e0e1461045b576101ee565b806317d70f7c1461037b57806323b872dd146103a657806324ec277c146103cf5780632bb7eff0146103eb576101ee565b8063081812fc116101c1578063081812fc146102c1578063095ea7b3146102fe57806310681d0d1461032757806310ce772414610364576101ee565b806301ffc9a7146101f357806302e0a0771461023057806305d60ffb1461025957806306fdde0314610296575b600080fd5b3480156101ff57600080fd5b5061021a60048036038101906102159190612fa2565b610752565b6040516102279190613516565b60405180910390f35b34801561023c57600080fd5b5061025760048036038101906102529190612ff4565b610834565b005b34801561026557600080fd5b50610280600480360381019061027b9190612da3565b6108ca565b60405161028d919061384e565b60405180910390f35b3480156102a257600080fd5b506102ab6108ea565b6040516102b89190613531565b60405180910390f35b3480156102cd57600080fd5b506102e860048036038101906102e39190613035565b61097c565b6040516102f591906134af565b60405180910390f35b34801561030a57600080fd5b5061032560048036038101906103209190612f0e565b610a01565b005b34801561033357600080fd5b5061034e60048036038101906103499190612da3565b610b19565b60405161035b919061384e565b60405180910390f35b34801561037057600080fd5b50610379610b39565b005b34801561038757600080fd5b50610390610cb1565b60405161039d9190613833565b60405180910390f35b3480156103b257600080fd5b506103cd60048036038101906103c89190612e08565b610cb7565b005b6103e960048036038101906103e4919061305e565b610d17565b005b3480156103f757600080fd5b50610400610f78565b005b34801561040e57600080fd5b50610417611011565b6040516104249190613833565b60405180910390f35b34801561043957600080fd5b50610442611016565b005b34801561045057600080fd5b506104596110db565b005b34801561046757600080fd5b50610482600480360381019061047d9190612e08565b611174565b005b34801561049057600080fd5b506104ab60048036038101906104a69190613035565b611194565b6040516104b891906134af565b60405180910390f35b3480156104cd57600080fd5b506104d6611246565b6040516104e39190613833565b60405180910390f35b3480156104f857600080fd5b5061050161124b565b005b34801561050f57600080fd5b5061052a60048036038101906105259190612da3565b6112e4565b6040516105379190613833565b60405180910390f35b34801561054c57600080fd5b5061055561139c565b005b34801561056357600080fd5b5061056c611424565b6040516105799190613833565b60405180910390f35b34801561058e57600080fd5b506105a960048036038101906105a49190612ff4565b61142e565b005b3480156105b757600080fd5b506105c06114c4565b6040516105cd91906134af565b60405180910390f35b3480156105e257600080fd5b506105eb6114ee565b6040516105f89190613531565b60405180910390f35b34801561060d57600080fd5b5061062860048036038101906106239190612f4a565b611580565b005b610644600480360381019061063f9190613035565b6116c8565b005b34801561065257600080fd5b5061066d60048036038101906106689190612ed2565b61186d565b005b34801561067b57600080fd5b5061069660048036038101906106919190612e57565b611883565b005b3480156106a457600080fd5b506106bf60048036038101906106ba9190613035565b6118e5565b6040516106cc9190613531565b60405180910390f35b3480156106e157600080fd5b506106ea6119a6565b005b3480156106f857600080fd5b50610713600480360381019061070e9190612dcc565b611a57565b6040516107209190613516565b60405180910390f35b34801561073557600080fd5b50610750600480360381019061074b9190612da3565b611aeb565b005b60007f80ac58cd000000000000000000000000000000000000000000000000000000007bffffffffffffffffffffffffffffffffffffffffffffffffffffffff1916827bffffffffffffffffffffffffffffffffffffffffffffffffffffffff1916148061081d57507f5b5e139f000000000000000000000000000000000000000000000000000000007bffffffffffffffffffffffffffffffffffffffffffffffffffffffff1916827bffffffffffffffffffffffffffffffffffffffffffffffffffffffff1916145b8061082d575061082c82611be3565b5b9050919050565b61083c611c4d565b73ffffffffffffffffffffffffffffffffffffffff1661085a6114c4565b73ffffffffffffffffffffffffffffffffffffffff16146108b0576040517f08c379a00000000000000000000000000000000000000000000000000000000081526004016108a790613773565b60405180910390fd5b80600890805190602001906108c6929190612b68565b5050565b600b6020528060005260406000206000915054906101000a900460ff1681565b6060600080546108f990613b3f565b80601f016020809104026020016040519081016040528092919081815260200182805461092590613b3f565b80156109725780601f1061094757610100808354040283529160200191610972565b820191906000526020600020905b81548152906001019060200180831161095557829003601f168201915b5050505050905090565b600061098782611c55565b6109c6576040517f08c379a00000000000000000000000000000000000000000000000000000000081526004016109bd90613753565b60405180910390fd5b6004600083815260200190815260200160002060009054906101000a900473ffffffffffffffffffffffffffffffffffffffff169050919050565b6000610a0c82611194565b90508073ffffffffffffffffffffffffffffffffffffffff168373ffffffffffffffffffffffffffffffffffffffff161415610a7d576040517f08c379a0000000000000000000000000000000000000000000000000000000008152600401610a74906137d3565b60405180910390fd5b8073ffffffffffffffffffffffffffffffffffffffff16610a9c611c4d565b73ffffffffffffffffffffffffffffffffffffffff161480610acb5750610aca81610ac5611c4d565b611a57565b5b610b0a576040517f08c379a0000000000000000000000000000000000000000000000000000000008152600401610b01906136d3565b60405180910390fd5b610b148383611cc1565b505050565b600c6020528060005260406000206000915054906101000a900460ff1681565b601a60095414610b7e576040517f08c379a0000000000000000000000000000000000000000000000000000000008152600401610b75906136b3565b60405180910390fd5b6000600190506000600190505b601a811015610cad576001600c6000610ba384611194565b73ffffffffffffffffffffffffffffffffffffffff1673ffffffffffffffffffffffffffffffffffffffff16815260200190815260200160002060009054906101000a900460ff1660ff161015610c9a57610c12610c0082611194565b836019610c0d9190613933565b611d7a565b6001600c6000610c2184611194565b73ffffffffffffffffffffffffffffffffffffffff1673ffffffffffffffffffffffffffffffffffffffff16815260200190815260200160002060006101000a81548160ff021916908360ff1602179055508180610c7e90613ba2565b92505060096000815480929190610c9490613ba2565b91905055505b8080610ca590613ba2565b915050610b8b565b5050565b60095481565b610cc8610cc2611c4d565b82611d98565b610d07576040517f08c379a0000000000000000000000000000000000000000000000000000000008152600401610cfe90613813565b60405180910390fd5b610d12838383611e76565b505050565b600a60019054906101000a900460ff16610d66576040517f08c379a0000000000000000000000000000000000000000000000000000000008152600401610d5d90613553565b60405180910390fd5b600b60003373ffffffffffffffffffffffffffffffffffffffff1673ffffffffffffffffffffffffffffffffffffffff16815260200190815260200160002060009054906101000a900460ff1660ff168160ff161115610dfb576040517f08c379a0000000000000000000000000000000000000000000000000000000008152600401610df2906137f3565b60405180910390fd5b601960018260ff16600954610e109190613933565b610e1a9190613a14565b1115610e5b576040517f08c379a0000000000000000000000000000000000000000000000000000000008152600401610e5290613613565b60405180910390fd5b348160ff16655af3107a4000610e7191906139ba565b1115610eb2576040517f08c379a0000000000000000000000000000000000000000000000000000000008152600401610ea9906137b3565b60405180910390fd5b80600b60003373ffffffffffffffffffffffffffffffffffffffff1673ffffffffffffffffffffffffffffffffffffffff16815260200190815260200160002060008282829054906101000a900460ff16610f0d9190613a48565b92506101000a81548160ff021916908360ff16021790555060005b8160ff16811015610f5d57610f4a3382600954610f459190613933565b611d7a565b8080610f5590613ba2565b915050610f28565b508060ff16600954610f6f9190613933565b60098190555050565b610f80611c4d565b73ffffffffffffffffffffffffffffffffffffffff16610f9e6114c4565b73ffffffffffffffffffffffffffffffffffffffff1614610ff4576040517f08c379a0000000000000000000000000000000000000000000000000000000008152600401610feb90613773565b60405180910390fd5b6001600a60026101000a81548160ff021916908315150217905550565b601981565b61101e611c4d565b73ffffffffffffffffffffffffffffffffffffffff1661103c6114c4565b73ffffffffffffffffffffffffffffffffffffffff1614611092576040517f08c379a000000000000000000000000000000000000000000000000000000000815260040161108990613773565b60405180910390fd5b3373ffffffffffffffffffffffffffffffffffffffff166108fc479081150290604051600060405180830381858888f193505050501580156110d8573d6000803e3d6000fd5b50565b6110e3611c4d565b73ffffffffffffffffffffffffffffffffffffffff166111016114c4565b73ffffffffffffffffffffffffffffffffffffffff1614611157576040517f08c379a000000000000000000000000000000000000000000000000000000000815260040161114e90613773565b60405180910390fd5b6001600a60006101000a81548160ff021916908315150217905550565b61118f83838360405180602001604052806000815250611883565b505050565b6000806002600084815260200190815260200160002060009054906101000a900473ffffffffffffffffffffffffffffffffffffffff169050600073ffffffffffffffffffffffffffffffffffffffff168173ffffffffffffffffffffffffffffffffffffffff16141561123d576040517f08c379a000000000000000000000000000000000000000000000000000000000815260040161123490613713565b60405180910390fd5b80915050919050565b601981565b611253611c4d565b73ffffffffffffffffffffffffffffffffffffffff166112716114c4565b73ffffffffffffffffffffffffffffffffffffffff16146112c7576040517f08c379a00000000000000000000000000000000000000000000000000000000081526004016112be90613773565b60405180910390fd5b6001600a60016101000a81548160ff021916908315150217905550565b60008073ffffffffffffffffffffffffffffffffffffffff168273ffffffffffffffffffffffffffffffffffffffff161415611355576040517f08c379a000000000000000000000000000000000000000000000000000000000815260040161134c906136f3565b60405180910390fd5b600360008373ffffffffffffffffffffffffffffffffffffffff1673ffffffffffffffffffffffffffffffffffffffff168152602001908152602001600020549050919050565b6113a4611c4d565b73ffffffffffffffffffffffffffffffffffffffff166113c26114c4565b73ffffffffffffffffffffffffffffffffffffffff1614611418576040517f08c379a000000000000000000000000000000000000000000000000000000000815260040161140f90613773565b60405180910390fd5b61142260006120dd565b565b655af3107a400081565b611436611c4d565b73ffffffffffffffffffffffffffffffffffffffff166114546114c4565b73ffffffffffffffffffffffffffffffffffffffff16146114aa576040517f08c379a00000000000000000000000000000000000000000000000000000000081526004016114a190613773565b60405180910390fd5b80600790805190602001906114c0929190612b68565b5050565b6000600660009054906101000a900473ffffffffffffffffffffffffffffffffffffffff16905090565b6060600180546114fd90613b3f565b80601f016020809104026020016040519081016040528092919081815260200182805461152990613b3f565b80156115765780601f1061154b57610100808354040283529160200191611576565b820191906000526020600020905b81548152906001019060200180831161155957829003601f168201915b5050505050905090565b611588611c4d565b73ffffffffffffffffffffffffffffffffffffffff166115a66114c4565b73ffffffffffffffffffffffffffffffffffffffff16146115fc576040517f08c379a00000000000000000000000000000000000000000000000000000000081526004016115f390613773565b60405180910390fd5b60005b838390508110156116c25781600b6000868685818110611648577f4e487b7100000000000000000000000000000000000000000000000000000000600052603260045260246000fd5b905060200201602081019061165d9190612da3565b73ffffffffffffffffffffffffffffffffffffffff1673ffffffffffffffffffffffffffffffffffffffff16815260200190815260200160002060006101000a81548160ff021916908360ff16021790555080806116ba90613ba2565b9150506115ff565b50505050565b600a60029054906101000a900460ff16611717576040517f08c379a000000000000000000000000000000000000000000000000000000000815260040161170e906135f3565b60405180910390fd5b601981111561175b576040517f08c379a0000000000000000000000000000000000000000000000000000000008152600401611752906137f3565b60405180910390fd5b601960018260095461176d9190613933565b6117779190613a14565b11156117b8576040517f08c379a00000000000000000000000000000000000000000000000000000000081526004016117af90613613565b60405180910390fd5b3481655af3107a40006117cb91906139ba565b111561180c576040517f08c379a000000000000000000000000000000000000000000000000000000000815260040161180390613673565b60405180910390fd5b60005b818110156118415761182e33826009546118299190613933565b611d7a565b808061183990613ba2565b91505061180f565b50806009546118509190613933565b600981905550601a600954141561186a57611869610b39565b5b50565b61187f611878611c4d565b83836121a3565b5050565b61189461188e611c4d565b83611d98565b6118d3576040517f08c379a00000000000000000000000000000000000000000000000000000000081526004016118ca90613813565b60405180910390fd5b6118df84848484612310565b50505050565b606060011515600a60009054906101000a900460ff16151514156119135761190c8261236c565b90506119a1565b6008805461192090613b3f565b80601f016020809104026020016040519081016040528092919081815260200182805461194c90613b3f565b80156119995780601f1061196e57610100808354040283529160200191611999565b820191906000526020600020905b81548152906001019060200180831161197c57829003601f168201915b505050505090505b919050565b60006119b26001611194565b90506000600290505b601a811015611a19578173ffffffffffffffffffffffffffffffffffffffff166119e482611194565b73ffffffffffffffffffffffffffffffffffffffff1614611a06575050611a55565b8080611a1190613ba2565b9150506119bb565b506000600190505b601a811015611a4657611a3381612413565b8080611a3e90613ba2565b915050611a21565b50611a5381600954611d7a565b505b565b6000600560008473ffffffffffffffffffffffffffffffffffffffff1673ffffffffffffffffffffffffffffffffffffffff16815260200190815260200160002060008373ffffffffffffffffffffffffffffffffffffffff1673ffffffffffffffffffffffffffffffffffffffff16815260200190815260200160002060009054906101000a900460ff16905092915050565b611af3611c4d565b73ffffffffffffffffffffffffffffffffffffffff16611b116114c4565b73ffffffffffffffffffffffffffffffffffffffff1614611b67576040517f08c379a0000000000000000000000000000000000000000000000000000000008152600401611b5e90613773565b60405180910390fd5b600073ffffffffffffffffffffffffffffffffffffffff168173ffffffffffffffffffffffffffffffffffffffff161415611bd7576040517f08c379a0000000000000000000000000000000000000000000000000000000008152600401611bce90613593565b60405180910390fd5b611be0816120dd565b50565b60007f01ffc9a7000000000000000000000000000000000000000000000000000000007bffffffffffffffffffffffffffffffffffffffffffffffffffffffff1916827bffffffffffffffffffffffffffffffffffffffffffffffffffffffff1916149050919050565b600033905090565b60008073ffffffffffffffffffffffffffffffffffffffff166002600084815260200190815260200160002060009054906101000a900473ffffffffffffffffffffffffffffffffffffffff1673ffffffffffffffffffffffffffffffffffffffff1614159050919050565b816004600083815260200190815260200160002060006101000a81548173ffffffffffffffffffffffffffffffffffffffff021916908373ffffffffffffffffffffffffffffffffffffffff160217905550808273ffffffffffffffffffffffffffffffffffffffff16611d3483611194565b73ffffffffffffffffffffffffffffffffffffffff167f8c5be1e5ebec7d5bd14f71427d1e84f3dd0314c0f7b2291e5b200ac8c7c3b92560405160405180910390a45050565b611d94828260405180602001604052806000815250612530565b5050565b6000611da382611c55565b611de2576040517f08c379a0000000000000000000000000000000000000000000000000000000008152600401611dd990613693565b60405180910390fd5b6000611ded83611194565b90508073ffffffffffffffffffffffffffffffffffffffff168473ffffffffffffffffffffffffffffffffffffffff161480611e2f5750611e2e8185611a57565b5b80611e6d57508373ffffffffffffffffffffffffffffffffffffffff16611e558461097c565b73ffffffffffffffffffffffffffffffffffffffff16145b91505092915050565b8273ffffffffffffffffffffffffffffffffffffffff16611e9682611194565b73ffffffffffffffffffffffffffffffffffffffff1614611eec576040517f08c379a0000000000000000000000000000000000000000000000000000000008152600401611ee3906135b3565b60405180910390fd5b600073ffffffffffffffffffffffffffffffffffffffff168273ffffffffffffffffffffffffffffffffffffffff161415611f5c576040517f08c379a0000000000000000000000000000000000000000000000000000000008152600401611f5390613633565b60405180910390fd5b611f6783838361258b565b611f72600082611cc1565b6001600360008573ffffffffffffffffffffffffffffffffffffffff1673ffffffffffffffffffffffffffffffffffffffff1681526020019081526020016000206000828254611fc29190613a14565b925050819055506001600360008473ffffffffffffffffffffffffffffffffffffffff1673ffffffffffffffffffffffffffffffffffffffff16815260200190815260200160002060008282546120199190613933565b92505081905550816002600083815260200190815260200160002060006101000a81548173ffffffffffffffffffffffffffffffffffffffff021916908373ffffffffffffffffffffffffffffffffffffffff160217905550808273ffffffffffffffffffffffffffffffffffffffff168473ffffffffffffffffffffffffffffffffffffffff167fddf252ad1be2c89b69c2b068fc378daa952ba7f163c4a11628f55a4df523b3ef60405160405180910390a46120d8838383612590565b505050565b6000600660009054906101000a900473ffffffffffffffffffffffffffffffffffffffff16905081600660006101000a81548173ffffffffffffffffffffffffffffffffffffffff021916908373ffffffffffffffffffffffffffffffffffffffff1602179055508173ffffffffffffffffffffffffffffffffffffffff168173ffffffffffffffffffffffffffffffffffffffff167f8be0079c531659141344cd1fd0a4f28419497f9722a3daafe3b4186f6b6457e060405160405180910390a35050565b8173ffffffffffffffffffffffffffffffffffffffff168373ffffffffffffffffffffffffffffffffffffffff161415612212576040517f08c379a000000000000000000000000000000000000000000000000000000000815260040161220990613653565b60405180910390fd5b80600560008573ffffffffffffffffffffffffffffffffffffffff1673ffffffffffffffffffffffffffffffffffffffff16815260200190815260200160002060008473ffffffffffffffffffffffffffffffffffffffff1673ffffffffffffffffffffffffffffffffffffffff16815260200190815260200160002060006101000a81548160ff0219169083151502179055508173ffffffffffffffffffffffffffffffffffffffff168373ffffffffffffffffffffffffffffffffffffffff167f17307eab39ab6107e8899845ad3d59bd9653f200f220920489ca2b5937696c31836040516123039190613516565b60405180910390a3505050565b61231b848484611e76565b61232784848484612595565b612366576040517f08c379a000000000000000000000000000000000000000000000000000000000815260040161235d90613573565b60405180910390fd5b50505050565b606061237782611c55565b6123b6576040517f08c379a00000000000000000000000000000000000000000000000000000000081526004016123ad90613793565b60405180910390fd5b60006123c061272c565b905060008151116123e0576040518060200160405280600081525061240b565b806123ea846127be565b6040516020016123fb92919061348b565b6040516020818303038152906040525b915050919050565b600061241e82611194565b905061242c8160008461258b565b612437600083611cc1565b6001600360008373ffffffffffffffffffffffffffffffffffffffff1673ffffffffffffffffffffffffffffffffffffffff16815260200190815260200160002060008282546124879190613a14565b925050819055506002600083815260200190815260200160002060006101000a81549073ffffffffffffffffffffffffffffffffffffffff021916905581600073ffffffffffffffffffffffffffffffffffffffff168273ffffffffffffffffffffffffffffffffffffffff167fddf252ad1be2c89b69c2b068fc378daa952ba7f163c4a11628f55a4df523b3ef60405160405180910390a461252c81600084612590565b5050565b61253a838361296b565b6125476000848484612595565b612586576040517f08c379a000000000000000000000000000000000000000000000000000000000815260040161257d90613573565b60405180910390fd5b505050565b505050565b505050565b60006125b68473ffffffffffffffffffffffffffffffffffffffff16612b45565b1561271f578373ffffffffffffffffffffffffffffffffffffffff1663150b7a026125df611c4d565b8786866040518563ffffffff1660e01b815260040161260194939291906134ca565b602060405180830381600087803b15801561261b57600080fd5b505af192505050801561264c57506040513d601f19601f820116820180604052508101906126499190612fcb565b60015b6126cf573d806000811461267c576040519150601f19603f3d011682016040523d82523d6000602084013e612681565b606091505b506000815114156126c7576040517f08c379a00000000000000000000000000000000000000000000000000000000081526004016126be90613573565b60405180910390fd5b805181602001fd5b63150b7a0260e01b7bffffffffffffffffffffffffffffffffffffffffffffffffffffffff1916817bffffffffffffffffffffffffffffffffffffffffffffffffffffffff191614915050612724565b600190505b949350505050565b60606007805461273b90613b3f565b80601f016020809104026020016040519081016040528092919081815260200182805461276790613b3f565b80156127b45780601f10612789576101008083540402835291602001916127b4565b820191906000526020600020905b81548152906001019060200180831161279757829003601f168201915b5050505050905090565b60606000821415612806576040518060400160405280600181526020017f30000000000000000000000000000000000000000000000000000000000000008152509050612966565b600082905060005b6000821461283857808061282190613ba2565b915050600a826128319190613989565b915061280e565b60008167ffffffffffffffff81111561287a577f4e487b7100000000000000000000000000000000000000000000000000000000600052604160045260246000fd5b6040519080825280601f01601f1916602001820160405280156128ac5781602001600182028036833780820191505090505b5090505b6000851461295f576001826128c59190613a14565b9150600a856128d49190613beb565b60306128e09190613933565b60f81b81838151811061291c577f4e487b7100000000000000000000000000000000000000000000000000000000600052603260045260246000fd5b60200101907effffffffffffffffffffffffffffffffffffffffffffffffffffffffffffff1916908160001a905350600a856129589190613989565b94506128b0565b8093505050505b919050565b600073ffffffffffffffffffffffffffffffffffffffff168273ffffffffffffffffffffffffffffffffffffffff1614156129db576040517f08c379a00000000000000000000000000000000000000000000000000000000081526004016129d290613733565b60405180910390fd5b6129e481611c55565b15612a24576040517f08c379a0000000000000000000000000000000000000000000000000000000008152600401612a1b906135d3565b60405180910390fd5b612a306000838361258b565b6001600360008473ffffffffffffffffffffffffffffffffffffffff1673ffffffffffffffffffffffffffffffffffffffff1681526020019081526020016000206000828254612a809190613933565b92505081905550816002600083815260200190815260200160002060006101000a81548173ffffffffffffffffffffffffffffffffffffffff021916908373ffffffffffffffffffffffffffffffffffffffff160217905550808273ffffffffffffffffffffffffffffffffffffffff16600073ffffffffffffffffffffffffffffffffffffffff167fddf252ad1be2c89b69c2b068fc378daa952ba7f163c4a11628f55a4df523b3ef60405160405180910390a4612b4160008383612590565b5050565b6000808273ffffffffffffffffffffffffffffffffffffffff163b119050919050565b828054612b7490613b3f565b90600052602060002090601f016020900481019282612b965760008555612bdd565b82601f10612baf57805160ff1916838001178555612bdd565b82800160010185558215612bdd579182015b82811115612bdc578251825591602001919060010190612bc1565b5b509050612bea9190612bee565b5090565b5b80821115612c07576000816000905550600101612bef565b5090565b6000612c1e612c198461388e565b613869565b905082815260208101848484011115612c3657600080fd5b612c41848285613afd565b509392505050565b6000612c5c612c57846138bf565b613869565b905082815260208101848484011115612c7457600080fd5b612c7f848285613afd565b509392505050565b600081359050612c9681614286565b92915050565b60008083601f840112612cae57600080fd5b8235905067ffffffffffffffff811115612cc757600080fd5b602083019150836020820283011115612cdf57600080fd5b9250929050565b600081359050612cf58161429d565b92915050565b600081359050612d0a816142b4565b92915050565b600081519050612d1f816142b4565b92915050565b600082601f830112612d3657600080fd5b8135612d46848260208601612c0b565b91505092915050565b600082601f830112612d6057600080fd5b8135612d70848260208601612c49565b91505092915050565b600081359050612d88816142cb565b92915050565b600081359050612d9d816142e2565b92915050565b600060208284031215612db557600080fd5b6000612dc384828501612c87565b91505092915050565b60008060408385031215612ddf57600080fd5b6000612ded85828601612c87565b9250506020612dfe85828601612c87565b9150509250929050565b600080600060608486031215612e1d57600080fd5b6000612e2b86828701612c87565b9350506020612e3c86828701612c87565b9250506040612e4d86828701612d79565b9150509250925092565b60008060008060808587031215612e6d57600080fd5b6000612e7b87828801612c87565b9450506020612e8c87828801612c87565b9350506040612e9d87828801612d79565b925050606085013567ffffffffffffffff811115612eba57600080fd5b612ec687828801612d25565b91505092959194509250565b60008060408385031215612ee557600080fd5b6000612ef385828601612c87565b9250506020612f0485828601612ce6565b9150509250929050565b60008060408385031215612f2157600080fd5b6000612f2f85828601612c87565b9250506020612f4085828601612d79565b9150509250929050565b600080600060408486031215612f5f57600080fd5b600084013567ffffffffffffffff811115612f7957600080fd5b612f8586828701612c9c565b93509350506020612f9886828701612d8e565b9150509250925092565b600060208284031215612fb457600080fd5b6000612fc284828501612cfb565b91505092915050565b600060208284031215612fdd57600080fd5b6000612feb84828501612d10565b91505092915050565b60006020828403121561300657600080fd5b600082013567ffffffffffffffff81111561302057600080fd5b61302c84828501612d4f565b91505092915050565b60006020828403121561304757600080fd5b600061305584828501612d79565b91505092915050565b60006020828403121561307057600080fd5b600061307e84828501612d8e565b91505092915050565b61309081613a7c565b82525050565b61309f81613a8e565b82525050565b60006130b0826138f0565b6130ba8185613906565b93506130ca818560208601613b0c565b6130d381613cd8565b840191505092915050565b60006130e9826138fb565b6130f38185613917565b9350613103818560208601613b0c565b61310c81613cd8565b840191505092915050565b6000613122826138fb565b61312c8185613928565b935061313c818560208601613b0c565b80840191505092915050565b6000613155601783613917565b915061316082613ce9565b602082019050919050565b6000613178603283613917565b915061318382613d12565b604082019050919050565b600061319b602683613917565b91506131a682613d61565b604082019050919050565b60006131be602583613917565b91506131c982613db0565b604082019050919050565b60006131e1601c83613917565b91506131ec82613dff565b602082019050919050565b6000613204601683613917565b915061320f82613e28565b602082019050919050565b6000613227601f83613917565b915061323282613e51565b602082019050919050565b600061324a602483613917565b915061325582613e7a565b604082019050919050565b600061326d601983613917565b915061327882613ec9565b602082019050919050565b6000613290601f83613917565b915061329b82613ef2565b602082019050919050565b60006132b3602c83613917565b91506132be82613f1b565b604082019050919050565b60006132d6600a83613917565b91506132e182613f6a565b602082019050919050565b60006132f9603883613917565b915061330482613f93565b604082019050919050565b600061331c602a83613917565b915061332782613fe2565b604082019050919050565b600061333f602983613917565b915061334a82614031565b604082019050919050565b6000613362602083613917565b915061336d82614080565b602082019050919050565b6000613385602c83613917565b9150613390826140a9565b604082019050919050565b60006133a8602083613917565b91506133b3826140f8565b602082019050919050565b60006133cb602f83613917565b91506133d682614121565b604082019050919050565b60006133ee601a83613917565b91506133f982614170565b602082019050919050565b6000613411602183613917565b915061341c82614199565b604082019050919050565b6000613434602283613917565b915061343f826141e8565b604082019050919050565b6000613457603183613917565b915061346282614237565b604082019050919050565b61347681613ae6565b82525050565b61348581613af0565b82525050565b60006134978285613117565b91506134a38284613117565b91508190509392505050565b60006020820190506134c46000830184613087565b92915050565b60006080820190506134df6000830187613087565b6134ec6020830186613087565b6134f9604083018561346d565b818103606083015261350b81846130a5565b905095945050505050565b600060208201905061352b6000830184613096565b92915050565b6000602082019050818103600083015261354b81846130de565b905092915050565b6000602082019050818103600083015261356c81613148565b9050919050565b6000602082019050818103600083015261358c8161316b565b9050919050565b600060208201905081810360008301526135ac8161318e565b9050919050565b600060208201905081810360008301526135cc816131b1565b9050919050565b600060208201905081810360008301526135ec816131d4565b9050919050565b6000602082019050818103600083015261360c816131f7565b9050919050565b6000602082019050818103600083015261362c8161321a565b9050919050565b6000602082019050818103600083015261364c8161323d565b9050919050565b6000602082019050818103600083015261366c81613260565b9050919050565b6000602082019050818103600083015261368c81613283565b9050919050565b600060208201905081810360008301526136ac816132a6565b9050919050565b600060208201905081810360008301526136cc816132c9565b9050919050565b600060208201905081810360008301526136ec816132ec565b9050919050565b6000602082019050818103600083015261370c8161330f565b9050919050565b6000602082019050818103600083015261372c81613332565b9050919050565b6000602082019050818103600083015261374c81613355565b9050919050565b6000602082019050818103600083015261376c81613378565b9050919050565b6000602082019050818103600083015261378c8161339b565b9050919050565b600060208201905081810360008301526137ac816133be565b9050919050565b600060208201905081810360008301526137cc816133e1565b9050919050565b600060208201905081810360008301526137ec81613404565b9050919050565b6000602082019050818103600083015261380c81613427565b9050919050565b6000602082019050818103600083015261382c8161344a565b9050919050565b6000602082019050613848600083018461346d565b92915050565b6000602082019050613863600083018461347c565b92915050565b6000613873613884565b905061387f8282613b71565b919050565b6000604051905090565b600067ffffffffffffffff8211156138a9576138a8613ca9565b5b6138b282613cd8565b9050602081019050919050565b600067ffffffffffffffff8211156138da576138d9613ca9565b5b6138e382613cd8565b9050602081019050919050565b600081519050919050565b600081519050919050565b600082825260208201905092915050565b600082825260208201905092915050565b600081905092915050565b600061393e82613ae6565b915061394983613ae6565b9250827fffffffffffffffffffffffffffffffffffffffffffffffffffffffffffffffff0382111561397e5761397d613c1c565b5b828201905092915050565b600061399482613ae6565b915061399f83613ae6565b9250826139af576139ae613c4b565b5b828204905092915050565b60006139c582613ae6565b91506139d083613ae6565b9250817fffffffffffffffffffffffffffffffffffffffffffffffffffffffffffffffff0483118215151615613a0957613a08613c1c565b5b828202905092915050565b6000613a1f82613ae6565b9150613a2a83613ae6565b925082821015613a3d57613a3c613c1c565b5b828203905092915050565b6000613a5382613af0565b9150613a5e83613af0565b925082821015613a7157613a70613c1c565b5b828203905092915050565b6000613a8782613ac6565b9050919050565b60008115159050919050565b60007fffffffff0000000000000000000000000000000000000000000000000000000082169050919050565b600073ffffffffffffffffffffffffffffffffffffffff82169050919050565b6000819050919050565b600060ff82169050919050565b82818337600083830152505050565b60005b83811015613b2a578082015181840152602081019050613b0f565b83811115613b39576000848401525b50505050565b60006002820490506001821680613b5757607f821691505b60208210811415613b6b57613b6a613c7a565b5b50919050565b613b7a82613cd8565b810181811067ffffffffffffffff82111715613b9957613b98613ca9565b5b80604052505050565b6000613bad82613ae6565b91507fffffffffffffffffffffffffffffffffffffffffffffffffffffffffffffffff821415613be057613bdf613c1c565b5b600182019050919050565b6000613bf682613ae6565b9150613c0183613ae6565b925082613c1157613c10613c4b565b5b828206905092915050565b7f4e487b7100000000000000000000000000000000000000000000000000000000600052601160045260246000fd5b7f4e487b7100000000000000000000000000000000000000000000000000000000600052601260045260246000fd5b7f4e487b7100000000000000000000000000000000000000000000000000000000600052602260045260246000fd5b7f4e487b7100000000000000000000000000000000000000000000000000000000600052604160045260246000fd5b6000601f19601f8301169050919050565b7f57686974656c697374206973206e6f7420616374697665000000000000000000600082015250565b7f4552433732313a207472616e7366657220746f206e6f6e20455243373231526560008201527f63656976657220696d706c656d656e7465720000000000000000000000000000602082015250565b7f4f776e61626c653a206e6577206f776e657220697320746865207a65726f206160008201527f6464726573730000000000000000000000000000000000000000000000000000602082015250565b7f4552433732313a207472616e736665722066726f6d20696e636f72726563742060008201527f6f776e6572000000000000000000000000000000000000000000000000000000602082015250565b7f4552433732313a20746f6b656e20616c7265616479206d696e74656400000000600082015250565b7f53616c65206973206e6f74206163746976652079657400000000000000000000600082015250565b7f50757263686173652077696c6c20657863656564206d617820737570706c7900600082015250565b7f4552433732313a207472616e7366657220746f20746865207a65726f2061646460008201527f7265737300000000000000000000000000000000000000000000000000000000602082015250565b7f4552433732313a20617070726f766520746f2063616c6c657200000000000000600082015250565b7f45746865722073656e742076616c7565206973206e6f7420636f727265637400600082015250565b7f4552433732313a206f70657261746f7220717565727920666f72206e6f6e657860008201527f697374656e7420746f6b656e0000000000000000000000000000000000000000602082015250565b7f43616e2774206769667400000000000000000000000000000000000000000000600082015250565b7f4552433732313a20617070726f76652063616c6c6572206973206e6f74206f7760008201527f6e6572206e6f7220617070726f76656420666f7220616c6c0000000000000000602082015250565b7f4552433732313a2062616c616e636520717565727920666f7220746865207a6560008201527f726f206164647265737300000000000000000000000000000000000000000000602082015250565b7f4552433732313a206f776e657220717565727920666f72206e6f6e657869737460008201527f656e7420746f6b656e0000000000000000000000000000000000000000000000602082015250565b7f4552433732313a206d696e7420746f20746865207a65726f2061646472657373600082015250565b7f4552433732313a20617070726f76656420717565727920666f72206e6f6e657860008201527f697374656e7420746f6b656e0000000000000000000000000000000000000000602082015250565b7f4f776e61626c653a2063616c6c6572206973206e6f7420746865206f776e6572600082015250565b7f4552433732314d657461646174613a2055524920717565727920666f72206e6f60008201527f6e6578697374656e7420746f6b656e0000000000000000000000000000000000602082015250565b7f45746865722076616c7565206973206e6f7420636f7272656374000000000000600082015250565b7f4552433732313a20617070726f76616c20746f2063757272656e74206f776e6560008201527f7200000000000000000000000000000000000000000000000000000000000000602082015250565b7f4578636565646564206d617820617661696c61626c6520746f2070757263686160008201527f7365000000000000000000000000000000000000000000000000000000000000602082015250565b7f4552433732313a207472616e736665722063616c6c6572206973206e6f74206f60008201527f776e6572206e6f7220617070726f766564000000000000000000000000000000602082015250565b61428f81613a7c565b811461429a57600080fd5b50565b6142a681613a8e565b81146142b157600080fd5b50565b6142bd81613a9a565b81146142c857600080fd5b50565b6142d481613ae6565b81146142df57600080fd5b50565b6142eb81613af0565b81146142f657600080fd5b5056fea26469706673582212209b36701ca8c40d1870437f46f81dea6270c94816947b9487d7df8c6659b9ff4f64736f6c63430008040033",
  "linkReferences": {},
  "deployedLinkReferences": {}
}